:100000000C94BF020C94DE020C94DE020C94DE020F
:100010000C94DE020C94DE020C94DE020C94DE02E0
:100020000C94DE020C94DE020C94DE020C94DE02D0
:100030000C94DE020C94DE020C94DE020C94DE02C0
:100040000C94DE020C94DE020C94DE020C94DE02B0
:100050000C94DE020C94DE020C94DE020C94DE02A0
:100060000C94DE020C94DE020C94DE020C94DE0290
:100070000C94DE020C94DE020C94DE020C94DE0280
:100080000C94DE020C94DE020C94DE020C94DE0270
:100090000C94DE020C94DE020C94DE020C94DE0260
:1000A0000C94DE025F00040304040104050A0D0041
:1000B000FE09FE09000185034804BD2005009102E8
:1000C00021079151C245002208239F428444002306
:1000D0001899514B4C504CC881484C504C504CC80E
:1000E00081484C504C08002412995153D4454C8CF3
:1000F0004CD4558C4C8AAB2000251599518B50441B
:10010000482E8224E252084584E422480400261442
:1001100099518B58485448985848509AA888543157
:1001200015012706215F8200280993914A4492DC39
:1001300024290A9391424C925C24012A0A55DD4AF3
:1001400050484536012B0B55D54A504849500800B8
:100150002C062271C6002D0615D942012E062271E9
:1001600002012F099951635CFE1000300F99514B29
:100170004D54449CEE22A2624A00310995D14AC8EE
:10018000503E29320E9951C7455C608A8BC0840766
:1001900002330F9951C7455C609ACA40B9880B0079
:1001A000340B995143609CBA83C11C350F9951C3DC
:1001B000C160C283C840B9880B0036109951C74549
:1001C0009C60E041449CBA880B00370B9951C38175
:1001D000605C0E3302380F9951C7459CBA888B3842
:1001E0007511170039109951C7459CBA8883C040D2
:1001F000B9880B003A0762710211013B0862710273
:100200009144003C0874B14E4846193D0744B5027C
:1002100021013E0974B1425026D9003F0F9951C7C0
:10022000459C5C6010553C6C1000401699514B4D3C
:100230005444C88854840885444C848845A40500E7
:1002400041149951535C445844544C504D544854B3
:10025000449C5C0042139951C34958449C58C4497A
:1002600058449C58C40900431099514B4D54449C28
:1002700060761151312500440D9951C34958449C71
:100280009E459C00450E9951C3C160C28388C084BD
:100290000702460D9951C3C160C28388C00C014753
:1002A0000F99518B4998601A3BB988B09003480B5D
:1002B0009951439C760774DA0549079151C2810030
:1002C0004A0E9951DB6086727211513125004B1430
:1002D0009951439C58445448504C519AA890B08826
:1002E000B8004C09995143607E78204D12995143D2
:1002F000DCD4444C844844884C8C9C76014E149940
:100300005143DC98449448904C8C50885484D85C79
:10031000004F0F99514B4D54449CEE22A2624A006B
:10032000500E9951C341449CBA0389C00C01511924
:10033000AA6F4B5154485C445C444C8AA09088A8F6
:100340008890A8A08AD00052109951C341449CBA09
:100350000389B088387501530F9951C7459C60E4F3
:1003600065A05CC40500540A9951C38150607E04A5
:10037000550C9951439CBE8B888A29015615995179
:10038000439C5C445448544CA298A888B088B82038
:100390000057179951434C8C4C8C4C8C4C8C4C8A8C
:1003A0009C446412914D120058139951435C44547B
:1003B0004CAA88B8145131A922E202590F9951432D
:1003C0005C44544CAA88B8C01C015A0A9951C38194
:1003D0005C7E77205B089271C244BE105C08995124
:1003E0004364FE005D0892718244BE185E0935DDEB
:1003F0004A4C449A005F071951C38100600734BD1D
:10040000825002610D7951C765C4819CBA880B0086
:10041000620E99514360E041449CEE0E2400630C4F
:100420007951C7459C6076111700640C9951638A15
:100430000339DD451C04650E7951C7459CDC8144B8
:1004400060E40500660C9951CB45DC414860DE0153
:10045000670E994DC7819CEE220E020F2400680C96
:1004600099514360E041449CDE056907915142C4C3
:10047000016A0CB94D633C4860BE8B38016B0F9923
:100480005143603AB18893B0883875016C08927115
:1004900042447E126D13795103C5444C8C4C8C4CF4
:1004A0008C4C8C4C8C4C026E0A7951C341449CDEBE
:1004B000056F0B7951C7459CEE222E00700E994DA9
:1004C000C341449CEE0E24020301710C994DC78177
:1004D0009CEE220E0213720B7951C341449CC20C54
:1004E00001730D7951C7459CE4A55CC40500740BEC
:1004F00099514B609855602E0D750A7951439CDED9
:10050000451C04760F7951439CBA88A89854117100
:10051000410077137951434C8C4C8C4C8A9C446439
:10052000932826040078107951435C44544CAAA9BE
:100530009854117101790D994D439CDE451C041EA0
:1005400048007A0B7951C381585CCE0E047B0C9322
:10055000914A44488A989034017C067153C2017DC7
:100560000D9391424C489A88901421007E0A3717C7
:1005700087504822090000000004FFFF00001124FA
:100580001FBECFEFCDBFDFE7DEBF10E4A0E0B0E4D9
:10059000E8EFFDE100E00BBF02C007900D92AA3723
:1005A000B107D9F722E4AAE7B0E401C01D92A13750
:1005B000B207E1F70E946A0E0C94FA0E0C94000048
:1005C000A82FB92FE42FF52F422F532FE617F70747
:1005D00048F4A417B50778F081E04E175F0770F074
:1005E00080E00895A417B50740F481E04E175F0737
:1005F00028F080E0089581E0089580E00895CF928A
:10060000DF92EF92FF920F931F93CF93DF93C82F48
:10061000D92FE62EF72ED22EC32E202F312F6AADE2
:100620007BAD88AD99AD0E94E002811551F06EA9B5
:100630007FA92D2D3C2D4E2D5F2D8CA99DA90E94AB
:10064000E002DF91CF911F910F91FF90EF90DF902B
:10065000CF90089526E0FC0120838AE790E4089576
:10066000A82FB92F242F352F1896ED91FC911997AB
:10067000462F67E1CD0109950895CF93DF930F923F
:10068000CDB7DEB76983AE014F5F5F4F61E00E9477
:1006900030030F90DF91CF910895A82FB92F1896AE
:1006A000ED91FC91199720E030E040E068E1CD0148
:1006B00009950895A82FB92F1896ED91FC911997D7
:1006C00020E030E040E069E1CD010995089580E047
:1006D0000895E82FF92F1082118287E693E0848332
:1006E0009583868397838087918782879387158AEE
:1006F000108E14861586168617868FEF868B828F4E
:100700000895AF92BF92CF92DF92EF92FF920F9334
:100710001F93CF93DF93C82FD92FA62EB72EC42EA9
:10072000D52EE22EF32ECE010E946903AC82BD824B
:10073000CE82DF82E886F9860A871B87CE010E9477
:100740008C0ADF91CF911F910F91FF90EF90DF9076
:10075000CF90BF90AF900895611529F06A3031F0C5
:10076000862F90E008958FEF9FEF08958FEF9FEF12
:100770000895FC01108E0895FC01E60FF11D84918F
:1007800090E0982F88273196E4918E0F911D08955F
:1007900080E090E00895FC01E059FF4F8081082E31
:1007A000000C990B019608950F931F93CF93DF933D
:1007B000C82FD92F062F172FF801849188833196DF
:1007C000E491E983F8013296E491EA83F8013396E3
:1007D000E491EB83F8013496E491EC83F8013596CB
:1007E000E491ED83F8013696E491EE83F8013796B3
:1007F000E491EF83F8013896E491E887F80139969F
:10080000E491E987F8013A96E491EA87F8013B968A
:10081000E491EB87F8013C96E491EC87F8013D9672
:10082000E491ED87F8013E96E491EE87F8013F965A
:10083000E491EF87F8017096E491E88B61E1C801DB
:100840000E94BC03898B9A8B63E1C8010E94BC03A0
:100850008B8B9C8B65E1C8010E94BC038D8B9E8BAA
:10086000DF91CF911F910F910895A82FB92F1A965C
:100870003C911A97ED91FC911197849190E0032E91
:1008800002C0959587950A94E2F7232F260F28300A
:1008900010F4E82F0FC03196ED93FC931197E4917B
:1008A000F0E098E0931B02C0EE0FFF1F9A95E2F76D
:1008B000E82B28501A962C938FEF9FEF02C0880FD9
:1008C000991F6A95E2F780958E2308950F931F93E1
:1008D000CF93DF93082F192FE801C85BDF4F6883A0
:1008E00079831A86F801E55AFF4F6081CE010E9494
:1008F00035048887F801E45AFF4F6081CE010E94D9
:1009000035048987F801EC58FF4F80818C8791E08E
:10091000811190E09D87DF91CF911F910F910895F4
:10092000CF93C62F0E943504C15021E030E002C0B1
:10093000220F331FCA95E2F7821BCF910895E82F4B
:10094000F92F213051F0223071F0211112C0CF0166
:10095000840F911D47FD9A950895CF01860F911D33
:1009600067FD9A950895CF01841B910947FD9395E2
:100970000895CF01861B910967FD93950895E82F8F
:10098000F92F213051F0223071F0211112C0CF0126
:10099000860F911D67FD9A950895CF01841B9109DB
:1009A00047FD93950895CF01861B910967FD9395A7
:1009B0000895CF01840F911D47FD9A9508952F92B8
:1009C0003F924F925F926F927F928F929F92AF92DF
:1009D000BF92CF92DF92EF92FF920F931F93CF932C
:1009E000DF9300D00F92CDB7DEB7C82ED92E6B8320
:1009F000442EF601E85BFF4F86818A8317817F01D1
:100A00005601E4E7AE0EB11C14C0F7018485F50170
:100A10008083222D30E0672D7981C6010E94AE08C7
:100A2000FB81F615B0F18A818F0F85198B831F5FCB
:100A30001A82F7015084652CFA816F1A2B80621498
:100A400008F4262CF701848095800685312E202F0E
:100A5000412F6A81828193810E94BF04782E9983FD
:100A6000202F412F6A81C4010E949F04482F592FD3
:100A70004110CBCFF70183858111D2CF8585F50158
:100A80008083222D30E0672D7981C6010E94AE0857
:100A9000C7CFF601E85BFF4F9B818A81980F968351
:100AA00037820F900F900F90DF91CF911F910F9190
:100AB000FF90EF90DF90CF90BF90AF909F908F907E
:100AC0007F906F905F904F903F902F9008956F921E
:100AD0007F928F929F92AF92BF92CF92DF92EF92CE
:100AE000FF920F931F93CF93DF93C82FD92F7E01CF
:100AF00088E4E80EF11CCE010E946604FE01EF5A64
:100B0000FF4F60803C966081C7010E949004982E40
:100B1000FE01E25AFF4F6081C7010E949004182F26
:100B2000FE01E15AFF4F6081C7010E949004882EA8
:100B3000F7017084711409F00CF48FC00685160D4E
:100B40001195202F412F692D828193810E94BF042E
:100B5000C82ED92EF701C282D382202F412F692DB2
:100B6000848195810E949F04482F592FF701448367
:100B70005583023009F481C098F4011539F181E000
:100B800090E08619910967FC939596012F5F3F4F7E
:100B90008A01070D111D77FC1A95C80ED91E20C0B9
:100BA000033089F49601260D311D67FC3A9581E0EA
:100BB00090E08719910977FC93958A010F5F1F4F89
:100BC000480F591F0DC08A0196010AC09601270DD2
:100BD000311D77FC3A958A01060D111D67FC1A95A7
:100BE000B601CE010E94FF028115B9F1FE01E85B5A
:100BF000FF4F168217825E01F9E5AF0EB11C6E0140
:100C00008AE5C80ED11C8E01085B1F4FF50160817B
:100C1000C7010E943504782EF6016081C7010E9449
:100C20003504982E40E0672DCE010E94DF0441E09C
:100C3000692DCE010E94DF0461E0C7010E943504E6
:100C40008111F0CFF8018781861504F3FE01EC587D
:100C5000FF4FC85BDF4F8C858083882DDF91CF915C
:100C60001F910F91FF90EF90DF90CF90BF90AF90CA
:100C70009F908F907F906F90089581E090E0BC01ED
:100C80006719710977FC739596012F5F3F4F86199D
:100C9000910967FC93958A010F5F1F4F480F591FF9
:100CA000C60ED71E9DCFEF92FF920F931F93CF9347
:100CB000DF93282F392F062F172FF901EC5BFF4FF9
:100CC000808191814796011541E0140708F039C0F1
:100CD0000136110558F1B69620813181820F931F9C
:100CE0009C012F5F3F4FF9014491411509F466C003
:100CF000FC0144914017110689F0F9012491820FFB
:100D0000911D9C012F5F3F4FF9014491411509F45A
:100D100058C0FC0144914017110679F70296DF9103
:100D2000CF911F910F91FF90EF900895013411051D
:100D3000B8F2F901E859FF4F20813181820F931FEA
:100D4000CFCFF901E459FF4FC081D181C80FD91F1E
:100D50007E0160E0C7010E94BC03C80FD91F62E09A
:100D6000C7010E94BC03F4E0EF0EF11C801791074D
:100D700080F3FE01849190E0982F88273196E491CA
:100D80008E2B009709F10817190791F0FE01329692
:100D9000E491CE0FD11DFE01849190E0982F882719
:100DA0003196E4918E2B009731F00817190771F7EF
:100DB000CE010396B4CF80E090E0B1CF80E090E028
:100DC000AECF80E090E0ABCF80E090E0A8CFCF92B4
:100DD000DF92EF92FF920F931F93CF93DF93C82F71
:100DE000D92FE62EF72E042F152FC22ED32EFE015B
:100DF000EA5AFF4F8081823009F448C068F48115B7
:100E0000C1F0FE01EA5BFF4F0190F081E02DCE01C1
:100E10000995E81AF90A17C08330A9F4FE01EA5BC4
:100E2000FF4F0190F081E02DCE010995E80EF91EEB
:100E30000AC0FE01EA5BFF4F0190F081E02DCE0178
:100E40000995080F191FFE01E65BFF4FE082F18252
:100E50003296008311836C2D7D2DCE010E945306A6
:100E6000682F792F80E090E06115710531F0CE0197
:100E70000E946705082E000C990BDF91CF911F91FE
:100E80000F91FF90EF90DF90CF900895FE01EA5B05
:100E9000FF4F0190F081E02DCE010995081B190B41
:100EA000D2CF8F929F92AF92BF92CF92DF92EF926A
:100EB000FF920F931F93CF93DF93C82FD92FC62E86
:100EC000D72EE42EF52EA22EB32ECE010E94B9030A
:100ED0000A2D1B2DA12CB12C4E0186E5880E911CEC
:100EE00009C0833029F4E21AF30A02C0C20ED31EED
:100EF000A20EB31EF80161918F01EA81FB81CE0140
:100F00000995282F392F2F3F3207C1F02E3F8FEF41
:100F1000380781F3A701B601CE010E94E706282F0A
:100F2000392FF4018081823031F0D8F68115F1F249
:100F3000E20EF31EDDCFC21AD30ADACFC501DF916C
:100F4000CF911F910F91FF90EF90DF90CF90BF90C6
:100F5000AF909F908F900895E82FF92F8CEA93E03F
:100F600082839383CF010E9451070895282F392F40
:100F7000F901EC5BFF4F80819181892B59F1B0968B
:100F800090813C9690833B9780813C9680833297FA
:100F900040814115F9F04130F1F0F901EF59FF4F6F
:100FA000508132964081642F042E000C770B650F20
:100FB000711D57FD7A95092E001C0008961707062B
:100FC0001CF43D96540F5083481724F4F901EF5850
:100FD000FF4F4083089539974081941714F43A964F
:100FE0004083F901E959FF4F908198179CF73A9691
:100FF00090830895FC01E159FF4F10820E94B607CB
:101000000895FC01EA5BFF4F88EC93E080839183B5
:101010000895FC01EA5BFF4F8BEC93E080839183A2
:101020000895CF93DF93C82FD92F862F972FFE01D6
:10103000EC5BFF4F208131812817390759F08083FD
:101040009183BC01CE01895A9F4F0E94D403CE01E7
:101050000E94B607DF91CF910895CF92DF92EF9271
:10106000FF920F93CF93DF93C82ED92EE62EF72E43
:10107000642F752F422F532F962F977021E030E069
:10108000092E02C0220F331F0A94E2F7D22FF60175
:10109000EC58FF4F8081C0E08230C0F0687FF601DD
:1010A000A2A1B3A120813181F9018089869F90019D
:1010B000879F300D11242E0D3F1DFD01E20FF31F00
:1010C000011549F0B6016C587F4F21C0C22F813005
:1010D00029F7D0E0E3CF4E0F5F1F80818C2B8D2747
:1010E0008193E417F507C9F7DF91CF910F91FF9036
:1010F000EF90DF90CF900895C82F813029F0D1E094
:10110000C1E002C0CC0FDD0F4115510569F38081AC
:101110008C2B8D2780839F5F9770415051099111CF
:10112000F1CFD60196962D913C91E20FF31FDB0192
:101130008C91823008F3D1E0E7CF0F93A82FB92F1D
:101140009A968D919C919B97481B590B5E96ED91B9
:10115000FC915F97CD0109950F9108950F93CF935F
:10116000DF93A82FB92FC62FD72F642F752F822F6B
:10117000932FFD01E259FF4F2081211509F478C01A
:10118000009709F475C08230910528F0023051F1C2
:10119000033009F44BC000FF28C0D4962D913C9138
:1011A000D597C217D30708F463C0D6962D913C910A
:1011B000D797C217D30708F05BC0DA962D913C9100
:1011C000DB97D8964D915C91D997860F971F86171C
:1011D000970708F052C06217730708F04DC0C901A5
:1011E00001974EC02196C81BD90BD8962D913C91E2
:1011F000D99762177307E0F1DA962D913C91DB974E
:1012000062177307A8F5D6962D913C91D797D4967F
:101210004D915C91D5978C0F9D1F8C179D0760F4A5
:10122000C217D30740F4C901019709C06F5F7F4F10
:10123000681B790BB2CFEA01C217D307C8F448176D
:101240005907B0F4C417D50708F4EA0182179307C9
:1012500008F49C012C1B3D0B00E09096ED91FC9155
:1012600091970480F581E02DAB01BE01CD01099578
:10127000DF91CF910F910895BA0162177307C0F7FC
:1012800048175907A8F76417750708F4BA018217B9
:10129000930708F49C01261B370B01E0DECFEF9289
:1012A000FF920F931F93CF93DF93082F192FC42F13
:1012B000E22EF32E6930E1F06A3009F16E3009F464
:1012C00081C068F56B3009F45FC080E06D3001F5D6
:1012D00041116AC06FE170E4C8010E94940CD8010A
:1012E000ED91FC911197828954968C9381E010C006
:1012F00060E070E4C8010E94240A81E009C0C801CE
:101300000E942E0A60E370E4C8010E94940C81E000
:10131000DF91CF911F910F91FF90EF90089580E0A2
:101320006F30B1F7C8010E947A0CF701D381DD0F4D
:10133000DD0FDD0FD80154968C91D80F6D2F62957B
:101340006F706061C8010E94530C6D2F6F70C801EF
:101350000E94530CF7016481606BC8010E94530C1A
:10136000D7014D915C91119712966C91660F660FA3
:10137000660FC8010E946D0CC150C111F1CFC801A8
:101380000E94870C81E0C4CF411107C06BE270E47A
:10139000C8010E94940C81E0BBCF66E270E4C801F2
:1013A0000E94940C81E0B4CF68E170E4C8010E940F
:1013B000940CD801ED91FC911197838954968C93EC
:1013C00081E0A6CFC8010E947A0C61E8C8010E94A2
:1013D000530C6C2FC8010E94600CC8010E94870C3E
:1013E00081E096CFCF92DF92EF92FF920F931F93FF
:1013F000CF93DF930F92CDB7DEB7E82EF92EC62E2E
:10140000D72E022F132F242F352F46EE5CE06FE4EA
:1014100079E00E948103CE0101960E942A03682F81
:10142000792F0C2D1D2D2DE238E049818E2D9F2D19
:101430000E94FD0B0F90DF91CF911F910F91FF90B4
:10144000EF90DF90CF900895E82FF92FA62FB72FB8
:10145000A083B18352968C91848B0895CF93DF93B0
:10146000C82FD92FEA85FB8520E030E040E068E214
:10147000CE010995EE81FF8120E030E040E064E19B
:10148000CE01099541E06BE4CE010E94660DE88132
:10149000F981448169E2CE010E94660D40E06BE46F
:1014A000CE010E94660DE881F981448169E2CE0196
:1014B0000E94660D41E06BE4CE010E94660DE8815A
:1014C000F981458169E2CE010E94660DDF91CF91DD
:1014D00008950F931F93CF93DF9300D000D00F9206
:1014E000CDB7DEB7A82FB92F6C834D832B8309832B
:1014F0001A831496ED91FC9115979E012F5F3F4F33
:1015000041E06FE0CD0109952596CDBFDEBFDF91AB
:10151000CF911F910F910895A82FB92F1496ED9197
:10152000FC91159720E030E040E069E0CD0109959D
:101530000895A82FB92F1496ED91FC91159720E0EE
:1015400030E040E06AE0CD0109950895A82FB92F59
:10155000462F1496ED91FC91159720E030E06BE05A
:10156000CD0109950895A82FB92F1496ED91FC91FE
:10157000159720E030E040E060E1CD010995089545
:10158000BF92CF92DF92EF92FF920F931F93CF9370
:10159000DF93E82EF92ED7019496DC9194979596D7
:1015A000CC919597ED91FC91B188C12CD12CD701AC
:1015B000ED91FC911197208992960D911C912C9D93
:1015C000C0012D9D900D1124880F991F880F991F20
:1015D000880F991F080F191F4C2F60E0C7010E9448
:1015E000690ACF5F81E08C0D8D1728F4BFEFCB1A0D
:1015F000DB0ACB15E0F2DF91CF911F910F91FF90A5
:10160000EF90DF90CF90BF900895E82FF92FA08141
:10161000B18150964C9184A1489FA0011124440FA0
:10162000551F440F551F440F551F60E070E082A105
:1016300093A10E94F30E0895CF93DF93D82FC92F63
:101640000E94C00A8D2F9C2F0E94B30ADF91CF9178
:101650000895E82FF92FA081B18184A190E09C0129
:10166000220F331F220F331F220F331F20A731A752
:1016700050962C91509730E0220F331F220F331FCA
:10168000220F331F26A337A365A1262F30E0A9011F
:10169000440F551F440F551F440F551F42A753A712
:1016A00051967C915197280F391F7217130620F419
:1016B000272F261B330BC90144A755A7880F991F55
:1016C000880F991F880F991F840F951F86A797A7CA
:1016D00054968D919C91559780AB91AB56968D9178
:1016E0009C9182AB93AB08950E94290B08950F93B0
:1016F0001F93CF93DF93C82FD92FFE01EE5BFF4FCF
:10170000008111812EAD3FAD3297408151816CAD8A
:101710007DADCE010E94FF02811108C0C259DF4F8A
:101720001882DF91CF911F910F91089581E0FE0102
:10173000E259FF4F80838CAD9DAD2CA93DA92817A0
:10174000390710F48CAB9DAB8EAD9FAD2EA93FA990
:101750008217930710F48EAB9FABFE01E05CFF4F46
:101760008081918128AD39AD2817390710F488AFF1
:1017700099AFFE01EE5BFF4F808191812AAD3BADB9
:101780008217930770F68AAF9BAFCBCFE82FF92F64
:1017900014AA15AA80A991A986AB97AB84A595A593
:1017A00080AF91AF86A597A582AF93AFCF010E947E
:1017B000770B08950F930E949D080F910895A82F0D
:1017C000B92FDC961D921C92DD97FD01E05CFF4F66
:1017D000108211828FEF9FEFDE968D939C93DF979F
:1017E0003296808391839096ED91FC91919702803F
:1017F000F381E02DCD01099508950F931F93CF93A9
:10180000DF93C82FD92FE02FF12FDE01AC5BBF4F44
:101810001D921C9211972E8F3F8F6AA37BA34CA31E
:101820001DA21F961C9290961C9214971C921596BE
:1018300081E08C9311968C93E8A3F9A30190F08139
:10184000E02DCE010995CE010E94DF0BCE010E9452
:101850000108CA5ADF4F1882DF91CF911F910F9173
:101860000895FF920F931F93CF93DF93C82FD92F23
:10187000162FF42E052FCE010E944D0360E4CE01F9
:101880000E943D03E885F9852F2D302F412F67E118
:10189000CE010995CE010E945A03DF91CF911F918D
:1018A0000F91FF900895A82FB92F462F1696ED910E
:1018B000FC91179720E030E065E1CD01099508958E
:1018C000A82FB92F462F1696ED91FC91179720E07F
:1018D00030E066E1CD0109950895A82FB92F242F96
:1018E000352F1696ED91FC911797462F67E1CD01A4
:1018F00009950895A82FB92F1696ED91FC91179789
:1019000020E030E040E068E1CD0109950895A82F7E
:10191000B92F1696ED91FC91179720E030E040E04A
:1019200069E1CD0109950895EF92FF920F931F93FE
:10193000CF93DF930F92CDB7DEB7E82EF92E062FA7
:10194000172F0FC06531D0F1F80141814983D701CC
:101950001696ED91FC9120E030E0C70109950E5FED
:101960001F4FD8016C916A3188F46831D8F467311F
:1019700048F3F80181818983AE014F5F5F4F61E0D9
:10198000C7010E946D0C0E5F1F4FEBCF6E3FB1F48D
:10199000F8014181498369E2C7010E94660D0E5F2B
:1019A0001F4FDFCF0F5F1F4FD7011696ED91FC91B0
:1019B00020E030E040E0C7010995D3CF0F90DF91E0
:1019C000CF911F910F91FF90EF900895EF92FF92AA
:1019D0000F931F93CF93E82EF92EC42F022F132FAE
:1019E000673109F44AC0C8F4653129F1663109F458
:1019F0003EC080E0643189F5D70156968C915697A8
:101A00008F3F09F457C0D7011896ED91FC919801CA
:101A10004C2F64E1C701099520C0683109F44EC01C
:101A200080E06931D1F48091FA4181114BC010926C
:101A3000FA4181E012C08091FA41811114C0C701BE
:101A40000E944D0360E0C7010E943D036C2FC70157
:101A50000E943D0381E08093FA41CF911F910F9145
:101A6000FF90EF900895C7010E945A03E8CF642FBA
:101A7000C7010E943D0381E0F0CF8091FA418111BE
:101A800015C0C93150F0A80168E1C7010E94310CAE
:101A9000C851085E1F4FC931B0F7A8016C2FC701AC
:101AA0000E94310C1092FA4181E0D7CFC7010E9409
:101AB0005A03E7CF88E756968C93A5CF1092FA4148
:101AC00081E0CBCFC7010E945A03B1CFA82FB92F15
:101AD0001A96ED91FC911B9720E030E0CD0109951D
:101AE0000895E0E0F9E0168283E0838381E0858356
:101AF0000895282FE0E0F9E0858181708115E1F3F8
:101B000091E0909304094FEF50E060E070E0E0E076
:101B1000F9E0958196FD06C04150510961097109AE
:101B2000C0F704C0452B462B472BC9F0209307096B
:101B30004FEF50E060E070E0E0E0F9E0958196FD65
:101B400006C04150510961097109C0F704C0452B15
:101B5000462B472B21F080910509829581700895CD
:101B60000F931F93CF93DF93C82F00E019E0D3E0CA
:101B700008C0F801D48383EC99E00197F1F700C025
:101B800000008C2F0E94790D8111F3CFDF91CF914E
:101B90001F910F91089583E0809304090895E0E078
:101BA000F9E08087858186FD14C08EEF90E0A0E08B
:101BB000B0E023E02A95F1F70000258126FD05C05D
:101BC0000197A109B109A8F704C0892B8A2B8B2B97
:101BD00029F08091050982958170089581E008952A
:101BE0000F931F93CF93DF93E82FF92FC22FD32F9B
:101BF000683141F138F0693151F181E06032E9F04A
:101C000080E01BC06431B1F080E06731B1F40FEFC8
:101C1000040F411501F110E00F5F1F4F0C0F1D1F46
:101C2000FE01219680810E94CF0DC017D107C1F718
:101C300081E003C00E94710D81E0DF91CF911F917F
:101C40000F91089586890E94B00D81E0F6CF0E9421
:101C5000CB0D81E0F2CF81E0F0CF6B3251F190F407
:101C60006932B9F06A3261F48FEF840F411579F06F
:101C700093E09A95F1F700008150D0F781E0089544
:101C800080E0089581E06C3289F080E0089581E081
:101C900008958FEF840F411551F0E9EFF0E031978F
:101CA000F1F700C000008150C0F781E0089581E0A5
:101CB0000895242F30E0A4E6B0E00E94E40E20EA6C
:101CC0003FE040E050E00E94C20E822F0197F1F702
:101CD00081E008952DE23EE040EF5DE065E670E4CE
:101CE0008BEF91E40E94F20988E7809311428BEF19
:101CF00091E40E94990A60E08BEF91E40E94A60AA9
:101D00008BEF91E40E94050B64EA70E08BEF91E4A5
:101D10000E9411088BEF91E40E94FA078BEF91E487
:101D20000E9409082BE630E440E050E060E070E0FB
:101D30008BEF91E40E94AC0722E730E44FE050E0E3
:101D400060E070E08BEF91E40E94AC078BEF91E4D0
:101D50000E941C0BC0E0D0E08BEF91E40E94050BC9
:101D600028E730E440E050E0BE018BEF91E40E94B0
:101D7000AC078BEF91E40E941C0B2196C832D10571
:101D800059F7E8CFA1E21A2EAA1BBB1BFD010DC01B
:101D9000AA1FBB1FEE1FFF1FA217B307E407F5071B
:101DA00020F0A21BB30BE40BF50B661F771F881FF7
:101DB000991F1A9469F760957095809590959B018D
:101DC000AC01BD01CF010895A29FB001B39FC00136
:101DD000A39F700D811D1124911DB29F700D811D57
:101DE0001124911D0895DC0101C06D9341505040B4
:081DF000E0F70895F894FFCF1D
:101DF8000001140A6464323200127A000004289642
:101E080008062020400030001815A015C019FF183A
:101E180015A115C819FF1815AE19FF1815AF19FF28
:101E28001815AE15D5168015A8162F15D31600153A
:101E380040158D16141520160015A115C815DA16AB
:101E480012158116CF15D9162215DB1600152E1579
:101E5800A415A619FF740BC60BDA0B48656C6C6FDA
:0A1E68000A00576F726C640023003B
:00000001FF
